{
	"data": {
		"bytecode": {
			"linkReferences": {},
			"object": "6080604052348015600e575f5ffd5b506101728061001c5f395ff3fe608060405234801561000f575f5ffd5b5060043610610034575f3560e01c80630aa78c71146100385780637c3ffef214610054575b5f5ffd5b610052600480360381019061004d91906100fe565b610070565b005b61006e600480360381019061006991906100fe565b610089565b005b610083818361009990919063ffffffff16565b50505050565b6100938282610099565b50505050565b5f5f5f83850190508481101592506100b0836100bc565b81029150509250929050565b5f8115159050919050565b5f5ffd5b5f819050919050565b6100dd816100cb565b81146100e7575f5ffd5b50565b5f813590506100f8816100d4565b92915050565b5f5f60408385031215610114576101136100c7565b5b5f610121858286016100ea565b9250506020610132858286016100ea565b915050925092905056fea2646970667358221220318ec36b88532985bd949f1d15369668c98f4a9e1237c9e61bd8124b80f2d85664736f6c634300081f0033",
			"opcodes": "PUSH1 0x80 PUSH1 0x40 MSTORE CALLVALUE DUP1 ISZERO PUSH1 0xE JUMPI PUSH0 PUSH0 REVERT JUMPDEST POP PUSH2 0x172 DUP1 PUSH2 0x1C PUSH0 CODECOPY PUSH0 RETURN INVALID PUSH1 0x80 PUSH1 0x40 MSTORE CALLVALUE DUP1 ISZERO PUSH2 0xF JUMPI PUSH0 PUSH0 REVERT JUMPDEST POP PUSH1 0x4 CALLDATASIZE LT PUSH2 0x34 JUMPI PUSH0 CALLDATALOAD PUSH1 0xE0 SHR DUP1 PUSH4 0xAA78C71 EQ PUSH2 0x38 JUMPI DUP1 PUSH4 0x7C3FFEF2 EQ PUSH2 0x54 JUMPI JUMPDEST PUSH0 PUSH0 REVERT JUMPDEST PUSH2 0x52 PUSH1 0x4 DUP1 CALLDATASIZE SUB DUP2 ADD SWAP1 PUSH2 0x4D SWAP2 SWAP1 PUSH2 0xFE JUMP JUMPDEST PUSH2 0x70 JUMP JUMPDEST STOP JUMPDEST PUSH2 0x6E PUSH1 0x4 DUP1 CALLDATASIZE SUB DUP2 ADD SWAP1 PUSH2 0x69 SWAP2 SWAP1 PUSH2 0xFE JUMP JUMPDEST PUSH2 0x89 JUMP JUMPDEST STOP JUMPDEST PUSH2 0x83 DUP2 DUP4 PUSH2 0x99 SWAP1 SWAP2 SWAP1 PUSH4 0xFFFFFFFF AND JUMP JUMPDEST POP POP POP POP JUMP JUMPDEST PUSH2 0x93 DUP3 DUP3 PUSH2 0x99 JUMP JUMPDEST POP POP POP POP JUMP JUMPDEST PUSH0 PUSH0 PUSH0 DUP4 DUP6 ADD SWAP1 POP DUP5 DUP2 LT ISZERO SWAP3 POP PUSH2 0xB0 DUP4 PUSH2 0xBC JUMP JUMPDEST DUP2 MUL SWAP2 POP POP SWAP3 POP SWAP3 SWAP1 POP JUMP JUMPDEST PUSH0 DUP2 ISZERO ISZERO SWAP1 POP SWAP2 SWAP1 POP JUMP JUMPDEST PUSH0 PUSH0 REVERT JUMPDEST PUSH0 DUP2 SWAP1 POP SWAP2 SWAP1 POP JUMP JUMPDEST PUSH2 0xDD DUP2 PUSH2 0xCB JUMP JUMPDEST DUP2 EQ PUSH2 0xE7 JUMPI PUSH0 PUSH0 REVERT JUMPDEST POP JUMP JUMPDEST PUSH0 DUP2 CALLDATALOAD SWAP1 POP PUSH2 0xF8 DUP2 PUSH2 0xD4 JUMP JUMPDEST SWAP3 SWAP2 POP POP JUMP JUMPDEST PUSH0 PUSH0 PUSH1 0x40 DUP4 DUP6 SUB SLT ISZERO PUSH2 0x114 JUMPI PUSH2 0x113 PUSH2 0xC7 JUMP JUMPDEST JUMPDEST PUSH0 PUSH2 0x121 DUP6 DUP3 DUP7 ADD PUSH2 0xEA JUMP JUMPDEST SWAP3 POP POP PUSH1 0x20 PUSH2 0x132 DUP6 DUP3 DUP7 ADD PUSH2 0xEA JUMP JUMPDEST SWAP2 POP POP SWAP3 POP SWAP3 SWAP1 POP JUMP INVALID LOG2 PUSH5 0x6970667358 0x22 SLT KECCAK256 BALANCE DUP15 0xC3 PUSH12 0x88532985BD949F1D15369668 0xC9 DUP16 BLOBBASEFEE SWAP15 SLT CALLDATACOPY 0xC9 DUPN 0x1B 0xD8 SLT 0x4B DUP1 CALLCODE 0xD8 JUMP PUSH5 0x736F6C6343 STOP ADDMOD 0x1F STOP CALLER "
		},
		"gasEstimates": {
			"creation": {
				"codeDepositCost": "74000",
				"executionCost": "121",
				"totalCost": "74121"
			},
			"external": {
				"testAdd(uint256,uint256)": "infinite",
				"testAdd2(uint256,uint256)": "infinite"
			}
		},
		"methodIdentifiers": {
			"testAdd(uint256,uint256)": "7c3ffef2",
			"testAdd2(uint256,uint256)": "0aa78c71"
		}
	},
	"abi": [
		{
			"inputs": [
				{
					"internalType": "uint256",
					"name": "a",
					"type": "uint256"
				},
				{
					"internalType": "uint256",
					"name": "b",
					"type": "uint256"
				}
			],
			"name": "testAdd",
			"outputs": [],
			"stateMutability": "pure",
			"type": "function"
		},
		{
			"inputs": [
				{
					"internalType": "uint256",
					"name": "a",
					"type": "uint256"
				},
				{
					"internalType": "uint256",
					"name": "b",
					"type": "uint256"
				}
			],
			"name": "testAdd2",
			"outputs": [],
			"stateMutability": "pure",
			"type": "function"
		}
	]
}